:020000040800F2
:100000007009002045010008D13B0008D33B0008DF
:10001000D73B0008DB3B0008DF3B00080000000086
:10002000000000000000000000000000E33B0008AA
:10003000E53B000800000000E73B0008E93B000842
:100040005F0100085F0100085F0100085F01000810
:100050005F0100085F0100085F0100085F01000800
:100060005F0100085F0100085F0100085F010008F0
:100070005F0100085F0100085F0100085F010008E0
:100080005F0100085F0100085F010008FB3B0008FA
:10009000F33B00085F0100085F0100085F010008F2
:1000A0005F0100085F0100085F0100085F010008B0
:1000B0005F0100085F0100085F0100085F010008A0
:1000C0005F0100085F0100085F0100085F01000890
:1000D0005F0100085F0100085F0100085F01000880
:1000E0005F0100085F0100085F0100085F01000870
:1000F0005F0100085F0100085F0100085F01000860
:100100005F010008EB3B00085F0100085F01000889
:100110005F0100085F0100085F0100085F0100083F
:100120005F0100085F0100085F0100085F0100082F
:10013000DFF80CD005F032F9004800475B3B0008BF
:10014000700900200648804706480047FEE7FEE7A2
:10015000FEE7FEE7FEE7FEE7FEE7FEE7FEE7FEE777
:1001600045020008310100080CB500200190009004
:100170006B48006840F480306949086000BF6848F7
:10018000006800F4003000900198401C0190009835
:1001900018B90198B0F5A06FF1D16148006810F46A
:1001A000003F02D00120009001E000200090009864
:1001B000012842D15B48006840F0100059490860AE
:1001C0000846006820F0030008600846006840F018
:1001D000020008605248406851494860084640683B
:1001E00048600846406840F48060486008464068BF
:1001F00020F47C1048600846406840F4E8104860ED
:100200000846006840F08070086000BF44480068FD
:1002100010F0007FFAD04248406820F003004049C7
:1002200048600846406840F00200486000BF3C4813
:10023000406800F00C000828F9D10CBD10B5FFF79C
:1002400093FF10BD10B53648006840F001003449F6
:10025000086008464068344908403149486008460B
:100260000068324908402E4908600846006820F4BA
:10027000802008600846406820F4FE0048604FF483
:100280001F008860FFF7DAFF4FF000602849086020
:1002900010BD10B5002100200022214B5B6803F047
:1002A0000C0121B1042906D0082928D107E0214BEF
:1002B000214C236027E01F4B1F4C236023E0184B89
:1002C0005B6803F47010164B5B6803F48032022302
:1002D00003EB904022B9194B4343174C23600DE0C8
:1002E0000F4B5B6813F4003F04D0144B4343124C94
:1002F000236003E00F4B43430F4C236003E00D4B9F
:100300000D4C236000BF00BF054B5B68C3F30313B4
:100310000B4CE15C084B1B68CB40074C236010BDC5
:1003200000100240002002400000FFF8FFFFF6FE30
:1003300008ED00E000127A000000002000093D00F6
:100340000400002031490143314A1160704770B503
:10035000002100230F22C4780CB32D4C246804F430
:10036000E064C4F5E064210AC1F10403CA404478A2
:1003700004FA03F18478144021430901254C0678DE
:10038000A155047804F01F050124AC4005786D11D7
:100390004FF0E02606EB8505C5F8004109E004783A
:1003A00004F01F050124AC401B4D0678761145F87A
:1003B000264070BD194A0A400243154B1B1F1A60A4
:1003C000704739B1124A121D12680243104B1B1DAF
:1003D0001A6006E00E4A121D126882430C4B1B1D68
:1003E0001A607047042808D14FF0E021096941F0F4
:1003F00004014FF0E022116107E04FF0E0210969AC
:1004000021F004014FF0E022116170470000FA056D
:100410000CED00E000E400E080E100E080FFFF1F61
:1004200001684FF6FE7211400160002101604160D9
:100430008160C1608C49884208D18B49083949687C
:1004400041F00F01884A083A51608AE08649143128
:10045000884208D184490839496841F0F001824A4C
:10046000083A51607DE080492831884208D17E49B0
:100470000839496841F470617B4A083A516070E07C
:1004800079493C31884208D177490839496841F4B3
:100490007041754A083A516063E0734950318842AF
:1004A00008D171490839496841F470216E4A083A07
:1004B000516056E06C496431884208D16A49083974
:1004C000496841F47001684A083A516049E0664958
:1004D0007831884208D164490839496841F070612F
:1004E000614A083A51603CE06049884206D1011FE8
:1004F000096841F00F01021F116032E05B491431BD
:10050000884208D15949091F096841F0F001574A4A
:10051000121F116025E055492831884208D15349FE
:10052000091F096841F47061504A121F116018E0F8
:100530004E493C31884208D14C49091F096841F4B1
:1005400070414A4A121F11600BE0484950318842FD
:1005500007D14649091F096841F47021434A121F17
:100560001160704710B50022026847F6F0739A4395
:100570000C6A8B6823430C6923434C6923438C69C1
:100580002343CC6923434C6A23438C6A23431A4395
:100590000260CB6843600B6883604B68C36010BD2A
:1005A0000021016041608160C16001614161816140
:1005B000C161016241628162704721B1026842F00B
:1005C0000102026004E002684FF6FE731A40026006
:1005D00070471AB103680B43036002E003688B4362
:1005E00003607047416070470146486880B27047B9
:1005F00001460020002211F0805F03D01B4B083B16
:100600001A6802E0184B083B1A680A4201D0012020
:1006100000E00020704710F0805F03D01349091FED
:10062000086002E010490839486070470146002020
:10063000002211F0805F03D00C4B083B1A6802E0E7
:10064000094B083B1A680A4201D0012000E0002053
:10065000704710F0805F03D00449091F086002E072
:100660000149083948607047080002400804024008
:1006700010B50446CA48844208D10121042000F084
:1006800027FB0021042000F023FB46E0C5488442FC
:1006900008D10121082000F01BFB0021082000F0F8
:1006A00017FB3AE0C048844208D10121102000F035
:1006B0000FFB0021102000F00BFB2EE0BB48844212
:1006C00008D10121202000F003FB0021202000F0B0
:1006D000FFFA22E0B648844208D10121402000F010
:1006E000F7FA0021402000F0F3FA16E0B148844206
:1006F00008D10121802000F0EBFA0021802000F0D9
:10070000E7FA0AE0AC48844207D10121801500F0E5
:10071000DFFA0021A01500F0DBFA10BD10B50121B1
:10072000084600F0D5FA0021012000F0D1FA10BDF2
:100730002DE9F04102460025002600200023002478
:10074000002791F803C00CF00F0591F803C01CF0CE
:10075000100F03D091F802C04CEA050591F800C0D3
:10076000BCF1000F31D0146800202BE04FF0010CD9
:100770000CFA00F3B1F800C00CEA03069E4220D147
:1007800083004FF00F0C0CFA03F7BC4305FA03FC8F
:100790004CEA040491F803C0BCF1280F06D14FF0D5
:1007A000010C0CFA00FCC2F814C00AE091F803C076
:1007B000BCF1480F05D14FF0010C0CFA00FCC2F857
:1007C00010C0401C0828D1D31460B1F800C0BCF19F
:1007D000FF0F34DD546800202EE000F1080C4FF0CC
:1007E000010808FA0CF3B1F800C00CEA03069E42B7
:1007F00021D183004FF00F0C0CFA03F7BC4305FA2C
:1008000003FC4CEA040491F803C0BCF1280F05D1A5
:1008100000F1080C08FA0CF8C2F8148091F803C033
:10082000BCF1480F07D100F1080C4FF0010808FA9D
:100830000CF8C2F81080401C0828CED35460BDE8E4
:10084000F0814FF6FF710180022181700421C17097
:1008500070470246002093680B4201D0012000E05F
:10086000002070470146886880B270470246002029
:10087000D3680B4201D0012000E000207047014600
:10088000C86880B2704701617047416170470AB122
:10089000016100E041617047C16070474FF48032F0
:1008A0000A4382618161826182698269704702467E
:1008B0000020424B18684FF68073184040EA02103F
:1008C00008433E4B186070473D49C8617047F0B51A
:1008D0000A46002300240021002500F00046B6F15E
:1008E000004F02D1354EF16901E0344E7168C0F31A
:1008F000034583B200F44016B6F5401F08D121F03D
:1009000070612E4E766826F070662C4F7E6012E085
:1009100000F48016B6F5801F06D1032606FA05F40A
:10092000A14341F0706106E0460D360103FA06F678
:10093000B14341F0706122B1460D360103FA06F66B
:10094000314300F00046B6F1004F02D11B4EF16179
:1009500001E01A4E7160F0BD30B500228B071C0F0C
:100960000F2303FA04F2154B08338C1053F824308C
:100970009343124C08348D1044F8253023468C10D4
:1009800053F824308C07240F00FA04F423430B4C53
:1009900008348D1044F8253030BD0A49086070478E
:1009A00000080140000C014000100140001401400B
:1009B00000180140001C01400020014000000140DF
:1009C00000002042DC002042DD48006840F00100C9
:1009D000DB49086008464068DA490840D849486061
:1009E00008460068D8490840D549086008460068AC
:1009F00020F4802008600846406820F4FE0048602B
:100A00004FF41F0088607047CD49096821F4803198
:100A1000CB4A11601146096821F480211160B0F5BC
:100A2000803F03D0B0F5802F0ED106E0C44909689D
:100A300041F48031C24A116007E0C149096841F4BC
:100A4000A021BF4A116000E000BF00BF704710B591
:100A500001460022002300204A11012A02D1B84C8D
:100A6000236806E0022A02D1B54C236A01E0B44CA7
:100A7000636A01F01F02012494401C4201D001204E
:100A800000E0002010BD38B50020009000240025B3
:100A900000BF3120FFF7DBFF05460098401C0090A7
:100AA0000098B0F5A06F01D0002DF2D03120FFF7F3
:100AB000CEFF08B1012400E00024204638BD0146E5
:100AC00000209F4A106820F0F80040EAC100106042
:100AD00070479E490860704702460020984B58684E
:100AE00020F47C1042EA01031843954B586070478C
:100AF00096490866704701460020914A506820F0E8
:100B000003000843506070478D48406800F00C00B7
:100B10007047014600208A4A506820F0F0000843E0
:100B20005060704701460020854A506820F4E0601C
:100B300008435060704701460020814A506820F405
:100B4000605040EAC1005060704729B17C4A527A37
:100B500002437B4B5A7204E0794A527A8243784BC3
:100B60005A7270477A490860704701460020744AFB
:100B7000506820F440400843506070470021754A97
:100B800011706F4A82F82010012802D0042808D181
:100B900003E001216F4A117004E005216D4A1170D4
:100BA00000E000BF00BF70476B49086070476449B0
:100BB000096A0143624A1162704767494439086013
:100BC000704730B500210022002400235C4D6D6881
:100BD00005F00C0121B1042905D0082923D105E035
:100BE0005E4D056022E05D4D05601FE0544D6D686F
:100BF00005F47012524D6D6805F48034022505EB42
:100C000092421CB9564D554305600BE04C4D6D6842
:100C100015F4003F03D0524D5543056002E04F4D9F
:100C20005543056002E04D4D056000BF00BF444DD7
:100C30006D6805F0F00109094A4D6B5C0568DD40FF
:100C400045603F4D6D6805F4E061090A454D6B5CF8
:100C50004568DD4085603A4D6D6805F46051C90A0C
:100C6000404D6B5C4568DD40C560354D6D6805F4F1
:100C70004041890B3C4D6B5CC568B5FBF3F50561E4
:100C800030BD29B12E4A526902432D4B5A6104E00E
:100C90002B4A526982432A4B5A61704729B1284A2C
:100CA00092690243264B9A6104E0254A9269824385
:100CB000234B9A61704729B1214AD2690243204BE4
:100CC000DA6104E01E4AD26982431D4BDA61704743
:100CD00029B11B4AD2680243194BDA6004E0184A72
:100CE000D2688243164BDA60704729B1144A126900
:100CF0000243134B1A6104E0114A12698243104BFC
:100D00001A61704714494039086070470F49C86438
:100D100070470B49C87170470948406A40F08070BD
:100D200007494862704701460020054A92680A4216
:100D300001D0012000E0002070470149887270470F
:100D4000001002400000FFF8FFFFF6FE00004242E4
:100D5000D8004242201002408004424200127A0031
:100D600000093D00140000202400002000206C49F0
:100D7000086048608860C86048628862C8626948E4
:100D800088630020C86370470021654A516847F6B0
:100D9000FF629143027D83681A4343681A43C36824
:100DA0001A4303681A4303691A4311435C4A5160AA
:100DB000704700210175016041608160C16001617F
:100DC00070475949086070475549096821F0030187
:100DD000534A116011460968014311607047504839
:100DE000006800F00300704729B14D4AD26B0243FE
:100DF0004B4BDA6304E04A4AD26B8243484BDA63D6
:100E000070474A49086070470021454B02689A6064
:100E10001A46D1686FF30A01D0E901231A43C36867
:100E20001A4303691A4311433D4AD16070470021B8
:100E3000016041608160C1600161704738480069AC
:100E4000C0B2704708B50146002000903448143005
:100E5000084400900098006808BD0021304B0268EB
:100E60005A6242689A621A46D16A21F0F701D0E9C3
:100E700002231A4303691A4343691A431143284A58
:100E8000D16270474FF0FF31016000214160816005
:100E9000C1600161416170472148006B704724487F
:100EA000006870472249086070471D48806C704791
:100EB0001E491431086070471C491831086070479A
:100EC0001A491C3108607047184920310860704782
:100ED000184908607047184908607047012181432C
:100EE000164A116070471649086070470146002095
:100EF0000B4A526B0A4201D0012000E000207047EB
:100F000007498863704701460020054A526B0A4230
:100F100001D0012000E0002070470149886370473C
:100F200000800140FF07C000A00030428C05304225
:100F300080800140AC013042B0013042B401304207
:100F4000B801304210B50446FB48844209D1012162
:100F50008803FFF7BDFE00214FF48040FFF7B8FE85
:100F600032E0F648844209D101214804FFF7BDFE72
:100F700000214FF40030FFF7B8FE25E0F04884422E
:100F800009D101218804FFF7B0FE00214FF4802031
:100F9000FFF7ABFE18E0EB48844209D10121C804F9
:100FA000FFF7A3FE00214FF40020FFF79EFE0BE0A9
:100FB000E548844208D101210805FFF796FE00218B
:100FC0004FF48010FFF791FE10BD2DE9F04786B079
:100FD00005460E460024A24600BFA1460027B08960
:100FE00000B100BF2F462C8A4CF6FF700440F088F9
:100FF00004432C82AC894EF6F3100440B08831894A
:101000000843718908430443AC81AC8A4FF6FF4022
:101010000440B0890443AC8201A8FFF7D2FDC64862
:10102000874202D1DDF810A001E0DDF80CA0A8890C
:1010300010F4004F08D00AEBCA0000EB0A10316828
:101040004900B0FBF1F807E00AEBCA0000EB0A1018
:1010500031688900B0FBF1F86420B8FBF0F00401BE
:101060002009642101FB1089A88910F4004F08D0E1
:10107000322000EBC900B0FBF1F000F007000443A0
:1010800008E0322000EB09106421B0FBF1F000F021
:101090000F0004432C8106B0BDE8F0874FF41651D1
:1010A000016000218180C18001810C2141810021EA
:1010B0008181704710B502460020108A4FF2FF036D
:1010C00018400B884C8823438C882343CC882343C7
:1010D0001843108210BD0021018041808180C180B1
:1010E000704721B1828942F40052828104E08289F2
:1010F0004DF6FF731A4082817047F0B50346002415
:10110000002600250020A1F510676A3F00D100BF2E
:101110001846C1F3421401F01F06012707FA06F52D
:10112000012C01D10C3004E0022C01D1103000E080
:1011300014301AB107682F43076002E00768AF4315
:101140000760F0BD1AB1838A0B43838202E0838A71
:101150008B4383827047028A4FF6F0731A400282F3
:10116000028A0A430282704782894FF2FF731A4053
:10117000828182890A438281704721B1828942F04B
:101180000202828104E082894FF6FD731A40828157
:101190007047028A4FF6DF731A400282028A0A43BE
:1011A0000282704721B1028A42F48042028204E046
:1011B000028A4BF6FF731A4002827047C1F308029D
:1011C0008280704701468888C0F308007047818993
:1011D00041F0010181817047028BD2B20283028B00
:1011E00042EA012202837047028B02F47F420283AB
:1011F000028B0A430283704721B1828A42F02002A7
:10120000828204E0828A4FF6DF731A40828270473E
:1012100021B1828A42F01002828204E0828A4FF673
:10122000EF731A408282704721B1828A42F008022D
:10123000828204E0828A4FF6F7731A4082827047F6
:1012400021B1828942F40042828103E08289C2F3A3
:101250000E028281704721B1828A42F4006282824A
:1012600004E0828A4FF2FF731A4082827047828ABA
:101270004FF6FB731A408282828A0A438282704749
:1012800021B1828A42F00202828204E0828A4FF611
:10129000FD731A408282704702460020B1F5007F3C
:1012A00000D100BF13880B4201D0012000E00020D4
:1012B000704701F40072B2F5007F00D100BFCA434D
:1012C0000280704770B502460024002300250020EC
:1012D000A1F510666A3E00D100BFC1F3421501F0CE
:1012E0001F03012606FA03F3012D02D1968933402C
:1012F00006E0022D02D1168A334001E0968A33407F
:101300000C12012606FA04F41688344013B10CB10D
:10131000012000E0002070BD10B500220023A1F5DF
:1013200010646A3C00D100BF0A1201249440A3B2A9
:10133000DC43048010BD0000003801400044004040
:1013400000480040004C00400050004010B50446EA
:101350002CB90120FE4909680882002010BDFD4912
:10136000096808688047FA4800680A30F6E710B54F
:10137000F7480068C078F8494978884213DCF44897
:101380000068807878B9F2480068808858B9F048D9
:101390000068C078EE4909688872EE4909684868B3
:1013A0008047002010BD0220FCE710B504462CB990
:1013B0000120E74909680882002010BDE549096855
:1013C00088688047E24800680C30F6E710B5E04BCB
:1013D0001B68D978DE4B1B685879E04B1B689A690B
:1013E00090470446DA480068807AE8B13CB9D848AA
:1013F0000068007918B9D6480068807808B10220E2
:1014000010BD8CB9D3490968C8688047D0480068C6
:101410004079CF490968C872CD480068C078CC4986
:10142000096808730020EBE70220E9E710B50446DD
:101430002CB90220C64909680882002010BD00208E
:10144000C7490880C2480068007810F07F0F23D198
:10145000BF490968487A10F0200F06D0C0490978C2
:1014600041F00201BE4A117005E0BD49097801F062
:10147000FD01BB4A117010F0400F06D0B849097841
:1014800041F00101B64A117005E0B549097801F053
:10149000FE01B34A117036E0AD480068007800F0F4
:1014A0007F00012801D1AE48C8E7A948006800784C
:1014B00000F07F00022824D1A54A1268517901F07A
:1014C0000F0011F0800F0DD0A64A52F8202002F034
:1014D0003002102A14D1A24A127842F00102A04B25
:1014E0001A700DE09F4A52F8202002F44052B2F5E3
:1014F000805F05D19A4A127842F00102984B1A7027
:1015000001E000209AE793490968086980479448F8
:1015100094E72DE9F0478E480068007800F07F08D6
:10152000B8F1000F0AD18A480068407A00F0DF0065
:101530008749096848720020BDE8F087B8F1020FBA
:101540007ED183480068408818B9814800680079D6
:1015500008B10220F0E7DFF800927D480068477983
:1015600027F080052C467A480068407910F0800FFB
:1015700005D07C4850F8240000F0300604E079489B
:1015800050F8240000F4405699F80000A84204D90D
:101590001EB16F480068807A08B90220CCE717F0C6
:1015A000800F0ED06F4850F8240000F03000102853
:1015B0003FD1E0B200F0B3FFE0B2302100F05BFEBB
:1015C00037E0684850F8240000F44050B0F5805FE0
:1015D0002FD1C4B9644A92F82C10E0B201F026F879
:1015E000604951F824104BF68F7201EA020080F432
:1015F000805080F4005040F4004141F08001594A8D
:1016000042F8241015E0E0B200F073FF554951F89C
:1016100024104BF68F7201EA020080F4805080F4AF
:10162000005040F4004141F080014E4A42F824103D
:1016300000BF484909684869804700207CE7FFE708
:1016400000BF022078E72DE9F04141480068467963
:1016500026F080073C463E480068407910F0800F35
:1016600005D0404850F8240000F0300504E03D4823
:1016700050F8240000F4405537480078A04208D9BB
:1016800033480068408820B91DB131480068807A2D
:1016900010B90220BDE8F08116F0800F10D031495A
:1016A00051F8241048F6BF7201EA020080F01000E1
:1016B00040F4004141F080012A4A42F8241010E031
:1016C000284951F824104BF68F7201EA020080F489
:1016D000805040F4004141F08001224A42F8241039
:1016E00000BF1C490968886980470020D2E710B50F
:1016F00017480068407A40F0200015490968487290
:1017000014490968C8698047002010BD10B5024619
:101710000F480068438A32B98888C01A0C4C246884
:101720002082002010BD08681844FBE72DE9F04135
:101730000748006800F110042688A06838B336B363
:10174000A588B54200D93546A8B2A16888470DE002
:10175000300000203C0000207001002034000020F8
:101760002A000020005C0040740100200746208809
:10177000401B2080608828446080002000F028FF03
:101780008046AAB24146384600F016FD00BF2088C8
:1017900050B14FF44050FA4908800021084600F04B
:1017A00023FF3020F74908802088A188884204DB85
:1017B0000320F5490968087218E02088002804DD34
:1017C0000520F1490968087210E0208870B90620E8
:1017D000ED49096808720021EC48006880B2801C5D
:1017E000EB4A42F810103020E6490880BDE8F0814D
:1017F0002DE9F047E448006800F110052E88E24822
:101800000068077AD6B9042F18D1E2480078012879
:101810000FD10021DD48006880B2801CDC4A42F80C
:1018200010103020D749088000BF0020D949087027
:1018300003E007271020D349088027E0AC88A642A0
:1018400001D8042000E002200746B44200D9344603
:10185000A0B2A96888478046002000F0A9FE814612
:10186000A2B24946404600F08DFCA1B2002000F033
:10187000BBFE2888001B28806888204468803020B0
:10188000C04908800002BE49088000BFBE490968FF
:101890000F72BDE8F08770B50226BB480068447837
:1018A000B9480068007810F07F0F44D1092C03D1AB
:1018B000FFF75DFD06465FE0052C14D1B2480068D5
:1018C000C0787F280BDCB0480068807838B9AE4813
:1018D0000068808818B9AC480068807A08B108258B
:1018E00065E0002648E0032C0ED1A7480068C078C8
:1018F000012807D1A4480068808818B9FFF7F7FECF
:10190000064639E0022637E0012C35D19E480068B2
:10191000C07801280DD19C480068808848B99A4851
:101920000068407A10F0200F03D0FFF7F2FD064662
:1019300022E0022620E094480068007800F07F0052
:10194000012805D10B2C17D1FFF740FD064613E007
:101950008D480068007800F07F0002280BD1012C30
:1019600003D1FFF7D6FD064606E0032C04D1FFF7AE
:101970006AFE064600E002264EB1E0B2864A1268D0
:10198000516988470646032E01D109250FE00EB1A3
:1019900008250CE0062500217C48006880B2801CE8
:1019A0007B4A42F8101030207649088000BF764903
:1019B00009680D7270BD2DE9F84F734800684578CD
:1019C0000027BA46062D1AD16F480068007810F03B
:1019D0007F0F13D16C4909688878012803D16E49BB
:1019E0000968CF690AE0022803D16B4909680F6AC8
:1019F00004E0032802D1684909684F6A97E0002D86
:101A000065D1614800684088002860D15E48006860
:101A1000C08802285BD15C4800680079002856D154
:101A200059480068007810F07F0F06D156480068CA
:101A3000808810B9AFF20B6779E0534800680078EE
:101A400000F07F00012811D14F49096848795249B7
:101A500009688A6900219047002868D14A480068CF
:101A6000807A002863D0AFF23B6760E046480068A8
:101A7000007800F07F00022859D14348006840797F
:101A800000F00F0640480068407900F070093E48B9
:101A90000068407910F0800F06D03C48503850F86C
:101AA000260000F0300805E03848503850F826008D
:101AB00000F4405839480078B04238D9B9F1000FE5
:101AC00035D1B8F1000F32D0AFF29F672FE0082D6B
:101AD00008D12D480068007810F07F0F27D1AFF2B1
:101AE000937724E00A2D22D127480068007800F07F
:101AF0007F0001281BD124480068807AB8B12248B1
:101B00000068408898B920480068007978B91E4874
:101B10000068C08801280AD11B49096848791E4914
:101B200009688A690021904708B9AFF2817757B1F7
:101B300015480068A0F812A01348006887610020CB
:101B4000B84700240FE0104A12685078124A126811
:101B5000116988470446032C05D109200A49096800
:101B60000872BDE8F88F08480068008AA0F57F4138
:101B7000FF3915D10920044909680872F1E700000E
:101B8000400000204200002030000020505C004057
:101B90000060004028000020340000207001002078
:101BA000022C03D09D480068008A20B908209B4978
:101BB00009680872D5E799480068007810F0800F2E
:101BC0003CD096480068C088009094480068008A1D
:101BD0000099884204D9914900980968088223E055
:101BE0008E480068008A8D490968C98888421BDAD6
:101BF0008A480068008A8A49096891F82C1088424E
:101C000003DA0020874908700EE084480068008AE3
:101C10008349096891F82C1090FBF1F201FB120046
:101C200010B901207F4908707D48006890F82C1099
:101C30007A4800688182FFF7DBFD06E003207749E0
:101C40000968087200037849088000BF89E710B569
:101C5000764890F82C10002000F0E8FC6F480068EF
:101C6000007A082805D140026F4908801020704989
:101C700008806A480068007A092801D1012010BD57
:101C80000020FCE738B501246A48006880B2001DD6
:101C9000694931F8100080B201EB400000905F48C4
:101CA0000068007A092832D0009800785B490968FA
:101CB00008700098401C0090009800785749096807
:101CC00048700098401C0090009800EB4400009081
:101CD000009931F8020B009100F046FE4F49096867
:101CE0004880009800EB44000090009931F8020B06
:101CF000009100F039FE494909688880009800EB9E
:101D0000440000900098008844490968C880012078
:101D100042490968087241480068C08810B9FFF755
:101D2000BAFD01E0FFF747FEFFF791FF38BD30B580
:101D30000146424B1A78002012E0C3B23D4C503CA1
:101D400054F8233048F68F74234048F2800423432C
:101D5000C4B22343C4B2374D503D45F82430401C33
:101D60009042EAD341F08003324C241F236030BDFF
:101D700010B52A480068047A022C01D0042C05D141
:101D8000FFF736FD25480068047A1CE0062C19D1BF
:101D900022480068407805280ED120480068007865
:101DA00010F07F0F08D11D490968C878FFF7BFFF01
:101DB00023490968086A8047194909688868804783
:101DC000082400E00824154909680C72FFF73FFF5A
:101DD00010BD10B511480068047A022C01D0042C03
:101DE00001D1082412E0032C01D0052C05D1FFF706
:101DF0009DFC0A480068047A08E0072C05D10849D0
:101E00000968C8688047082400E008240349096875
:101E10000C72FFF71CFF10BD70470000300000205F
:101E20003400002028000020400000207401002021
:101E300042000020505C0040006000407001002023
:101E40003C00002010B508480849086002200968D5
:101E500008720748074908600748084908600549AB
:101E600009680868804710BD20020020300000206B
:101E70007401002034000020A40100203C00002058
:101E800008B50020009015E1B748008800F00F0069
:101E9000B64908700846007800287DD1B44800682B
:101EA000B44908800846008800F03000B249088034
:101EB000B048008800F44050AE490880AC49096839
:101EC0004BF6BF7201EA020080F4005080F020005F
:101ED00040F4004141F08001A54A1160A248008809
:101EE00010F0100F32D11046006848F60F7108400C
:101EF00011460860FFF73CFF9D4909684BF6BF7229
:101F000001EA02009B49098811F4805F01D080F446
:101F100080509849098811F4005F01D080F4005086
:101F20009549098811F0100F01D080F010009249F6
:101F3000098811F0200F01D080F0200081B241F417
:101F4000004141F080018A4A116008BD884800685C
:101F500080B20090BDF8000010F4006F36D08448C5
:101F60000068C0F30E0048F68F7108408049086091
:101F7000FFF788FE7E4909684BF6BF7201EA02004E
:101F80007C49098811F4805F01D080F48050794940
:101F9000098811F4005F00E052E001D080F40050A5
:101FA0007549098811F0100F01D080F010007249B6
:101FB000098811F0200F01D080F0200081B241F497
:101FC000004141F080016A4A1160BEE7BDF800009F
:101FD00010F4004F6ED066480068C0F30E0048F65B
:101FE0008F71084062490860FFF7F3FE6049096895
:101FF0004BF6BF7201EA02005E49098811F4805F66
:1020000001D080F480505B49098811F4005F01D051
:1020100080F400505849098811F0100F01D080F069
:1020200010005549098811F0200F01D080F02000E0
:1020300081B241F4004141F080014D4A116084E7D2
:102040004A4800784A4951F8200080B20090BDF813
:10205000000010F4004F14D04448007851F82000DC
:10206000C0F30E0048F68F71084040490978404A95
:1020700042F821003D490978491E404A52F82100A2
:102080008047BDF8000010F0800F13D0374800786B
:10209000374951F8200048F60F7108403349097854
:1020A000334A42F8210031490978491E344A52F82E
:1020B000210080472E484430006880B22A490880B9
:1020C00010F4004F7FF4E0AE00BF3EE710B50024EF
:1020D00040E047F6FF7026494431086022480088F6
:1020E00000F00F002149087008460078204951F897
:1020F000200084B214F4004F15D01C48007851F829
:102100002000C0F30E0048F68F7108401749097887
:10211000174A42F8210015490978491E174A52F812
:102120002100804716E014F0800F13D00F4800788C
:102130000F4951F8200048F60F7108400B49097803
:102140000B4A42F8210009490978491E0C4A52F805
:102150002100804706484430006880B20249088068
:1021600010F4004FB5D110BD680100202C000020F4
:10217000005C004040000020420000204C01002094
:1021800030010020F0B5144604F1010C4FEA6C0751
:10219000DFF848C00CEB41033D460AE00678401CDE
:1021A00090F800C046EA0C2223F8022B9B1C401C2E
:1021B0006D1E002DF2D1F0BDF0B5561C7510074E06
:1021C00006EB41042B4605E034F8047B20F8017B44
:1021D000401C5B1E002BF7D1F0BD000000600040EA
:1021E000F94908607047F848006880B27047F649BE
:1021F000091D08607047F448001D006880B27047F0
:10220000F1480830006880B27047EF490C3108602F
:102210007047ED480C30006880B270474FF6F87197
:102220000140E94A103211607047E74810300068F9
:1022300080B27047E44A403A42F8201070470146A5
:10224000E148403850F8210080B27047DE4A403AF9
:1022500052F8202048F68F131A400A43DA4B403BCD
:1022600043F8202070470146D748403850F82100F5
:1022700000F4C060704710B5D34B403B53F820309A
:1022800048F6BF7403EA040211F0100F01D082F087
:10229000100211F0200F01D082F0200242F400431E
:1022A00043F08003C84C403C44F8203010BD10B5CA
:1022B000C54B403B53F820304BF68F7403EA0402C1
:1022C00011F4805F01D082F4805211F4005F01D0DC
:1022D00082F4005242F4004343F08003BA4C403C85
:1022E00044F8203010BD10B502460B461046FFF7EB
:1022F000A6FF0446012B06D124F48050B249403990
:1023000041F8220007E0022B05D124F01000AE496D
:10231000403941F8220010BD0146AB48403850F822
:10232000210000F0300070470146A748403850F8BF
:10233000210000F440507047A34A403A52F8202050
:1023400048F6BF7302EA030181F0100181F0200119
:1023500041F4004242F080029B4B403B43F8202076
:102360007047994A403A52F820204BF68F7302EAA0
:10237000030181F4805181F4005141F4004242F0A4
:102380008002914B403B43F8202070478E494039F2
:1023900051F8201041F4807148F68F72114048F2D4
:1023A00080021143884A403A42F82010704786491B
:1023B000403951F8201048F68F62114048F28002EF
:1023C0001143814A403A42F8201070477E49403913
:1023D00051F8201048F68F62114048F280021143F4
:1023E000794A403A42F8201070477749403951F80D
:1023F000201041F4807148F68F72114048F280023B
:102400001143714A403A42F8201070476E494039F2
:1024100051F8201041F4807148F68F72114048F253
:1024200080021143684A403A42F8201070476649DA
:10243000403951F8201048F68F62114048F280026E
:102440001143614A403A42F82010704701465E4805
:10245000403850F8210000F03000102801D1012050
:1024600070470020FCE701465748403850F82100EB
:1024700000F44050B0F5805F01D10120704700208A
:10248000FCE75149403951F82010C1F30E0148F6DC
:102490008F7211404C4A403A42F8201070474A4926
:1024A000403951F8201048F60F721140464A403A20
:1024B00042F8201070474449403951F8201048F63E
:1024C0008F7211404CF2800211433F4A403A42F869
:1024D000201070473C49403951F8201048F68F725F
:1024E000114048F2C0021143374A403A42F82010E6
:1024F00070473549403951F8201011F4804F0DD004
:102500003149403951F8201048F68F7211404CF291
:10251000800211432C4A403A42F8201070472A4961
:10252000403951F8201011F0400F0DD026494039A4
:1025300051F8201048F68F72114048F2C002114342
:10254000214A403A42F8201070471F4A403A52F858
:10255000202048F68F731A4048F280031A430A433A
:10256000194B403B43F8202070470146164840383D
:1025700050F8210000F00F00704710B54A105300CA
:10258000114A1032126892B202EBC0020F4C44F8AA
:10259000123010BD10B54A1053000B4A10321268A9
:1025A00092B202EBC002121D084C44F8123010BD6A
:1025B000014605481030006880B200EBC100034AB4
:1025C00032F8100080B27047405C0040006000406C
:1025D0000146E848006880B200EBC100001DE64AF1
:1025E00032F8100080B27047E24A126892B202EBF1
:1025F000C002921CE04B43F81210704702463E297D
:102600000BDD481111F01F0F01D1431E98B24FF49A
:10261000004343EA8023136007E0481011F0010FE4
:1026200001D0431C98B283021360704710B5024674
:10263000D048006880B200EBC200801DCE4C04EB95
:1026400040033E290BDD481111F01F0F01D1441E3C
:10265000A0B24FF4004444EA80241C6007E0481014
:1026600011F0010F01D0441CA0B284021C6010BD07
:102670000146C048006880B200EBC100801CBE4A21
:1026800032F81000C0F3090070470146B9480068ED
:1026900080B200EBC100801DB74A32F81000C0F3D1
:1026A0000900704730B54B105C00B24B1B689BB201
:1026B00003EBC003B04D45F8134053105C00AD4B25
:1026C0001B689BB203EBC0031B1D45F8134030BDD4
:1026D00010B54A105300A74A126892B202EBC0022A
:1026E000A54C44F8123010BD10B54A105300A14A51
:1026F000126892B202EBC002121D9F4C44F81230D5
:1027000010BD01469B48006880B200EBC1009A4AA8
:1027100032F8100080B2704701469648006880B2D7
:1027200000EBC100001D944A32F8100080B27047DF
:1027300030B50B46012B1FD18E49096889B201EBD8
:10274000C001891C8C4D05EB41043E2A0BDD511163
:1027500012F01F0F01D14D1EA9B24FF4004545EAFA
:102760008125256007E0511012F0010F01D04D1CAA
:10277000A9B28D0225600AE0022B08D17D490968C3
:1027800089B201EBC001891C7B4C44F81120012B5C
:102790001FD17849096889B201EBC001891D764DC6
:1027A00005EB41043E2A0BDD511112F01F0F01D140
:1027B0004D1EA9B24FF4004545EA8125256007E08A
:1027C000511012F0010F01D04D1CA9B28D022560ED
:1027D0000AE0022B08D16749096889B201EBC00100
:1027E000891D654C44F8112030BD30B503460129E0
:1027F0001FD16048006880B200EBC300801C5E4DB2
:1028000005EB40043E2A0BDD501112F01F0F01D1E1
:10281000451EA8B24FF4004545EA8025256007E033
:10282000501012F0010F01D0451CA8B2850225609E
:102830000AE0022908D14F48006880B200EBC300CB
:10284000801C4D4C44F8102030BD30B503460129A2
:102850001FD14848006880B200EBC300801D464D80
:1028600005EB40043E2A0BDD501112F01F0F01D181
:10287000451EA8B24FF4004545EA8025256007E0D3
:10288000501012F0010F01D0451CA8B2850225603E
:102890000AE0022908D13748006880B200EBC30083
:1028A000801D354C44F8102030BD01463148006889
:1028B00080B200EBC100801C2F4A32F81000C0F338
:1028C0000900704701462B48006880B200EBC10048
:1028D000801D294A32F81000C0F3090070470146F4
:1028E0002448006880B200EBC100801D224A32F803
:1028F000100010F47C4F01D0012070471D48006883
:1029000080B200EBC100801C1B4A32F81000800529
:10291000800D01D00220F0E70020EEE701290ED162
:10292000144A503A52F8202048F68F731A4048F261
:10293000C0031A430F4B503B43F820200FE00229FD
:102940000DD10C4A503A52F8202048F68F731A40A5
:102950004CF280031A43074B503B43F8202070474A
:10296000024641EA022070470146CAB20B1243EA0E
:1029700002207047505C00400060004000201D496C
:1029800008604FF404401C49088008460088194933
:10299000091F0860002070472DE9F04104460E46EB
:1029A000154604F07F00FFF703FE0746AAB239463A
:1029B0003046FFF7E7FBA9B204F07F00FFF714FEF3
:1029C0000020BDE8F0812DE9F04104460E460025C7
:1029D00004F07F00FFF759FE054604F07F00FFF783
:1029E000F7FD07462A4639463046FFF7E5FB2846FD
:1029F000BDE8F081445C00403A00002010B50020A2
:102A000000F0A6F810BD10B5FFF7F8FF10BD10B527
:102A10000020FEF7A7F80121C805FEF74CF910BD0C
:102A200003204649086070474548817A19B105215D
:102A3000424A116002E00121404A1160704708B526
:102A40004FF4C060FDF77EFC14208DF800000120DB
:102A50008DF801008DF802008DF803006846FDF73F
:102A600076FC13208DF8000001208DF80100002075
:102A70008DF8020001208DF803006846FDF767FC21
:102A800031208DF8000000208DF801008DF8020043
:102A90006846FDF75CFC08BD38B5044601212020DE
:102AA000FEF7FCF84020ADF8000003208DF802008E
:102AB00014208DF8030069462248FDF739FE24B141
:102AC00040212048FDF7E1FE03E040211D48FDF7CD
:102AD000DAFE38BD30B50B46002100BF16E00A24EF
:102AE000B4EB107F05D9302404EB107403F81140C7
:102AF00005E0412404EB10740A3C03F81140000186
:102B000000254C00641C1D554C1CE1B29142E6DBD3
:102B100030BD70B50C480468001D0568001D0668CE
:102B2000344454B1082209492046FFF7D3FF042258
:102B3000064910312846FFF7CDFF70BD0002002086
:102B40002002002000140140E8F7FF1F12010020BE
:102B500070B50446002524B901F0C4FE514908604F
:102B600001E0012070BD00BF2846FBE72DE9F041E0
:102B700004460F4615461E46B4B932463946284625
:102B800002F01FF94749086002F00DFA4549086054
:102B900000BF01F00EFF0028FBD14248006810B1D1
:102BA0000120BDE8F08101E00120FAE700BF00202C
:102BB000F7E72DE9F04104460F4615461E46A4B935
:102BC00032463946284602F00BF802F0E5F835495E
:102BD000086000BF01F0EDFE0028FBD1314800681D
:102BE00010B10120BDE8F08101E00120FAE700BF4B
:102BF0000020F7E770B5044600250026002C4ED1D2
:102C000001F070FE00284AD1274801F0DCFA26497D
:102C1000B1F84C10080401F0BEFA2348007E851C70
:102C2000214890F84E00022806D11F480069401C38
:102C300080021E49086012E01B490A7A012101FA4C
:102C400002F0C11700EBD1514E1217480069401C29
:102C50000121A940484371088840144908604FF495
:102C60000070134908601049B1F84C10080401F0D5
:102C700092FA0C4908604FF4006001F046FA0949E5
:102C800008600846006808B1012070BD0748006868
:102C9000074909684843074908600020F5E7012013
:102CA000F3E7000044000020DC040020580000206E
:102CB000500000204800002070B504460D4616461E
:102CC0007448007870B9744850F824006843734918
:102CD0000860714850F82400704371490860012071
:102CE0006C4908706B480078012844D16D48006831
:102CF000C0B9694830F8240083B26B4A674801685C
:102D00002046FFF756FF402267498120FFF744FE27
:102D1000614850F824004038624908604020634907
:102D2000086011E06048614A1268811840228120E1
:102D3000FFF732FE5B48006840385A4908605B483C
:102D4000006840305949086040210120FFF74CFCE1
:102D500030210120FFF78FFA5048006840304F497A
:102D600008604F48006840384D4908605048806806
:102D700040384F4988604A48006860B90020494996
:102D800008604A49086045490860032049490870BD
:102D900000204049087070BD2DE9F04104460D4601
:102DA00016464548006800F140073A48007870B977
:102DB000394850F82400684340490860364850F8C4
:102DC000240070433E4908600120324908703148B0
:102DD000007801284CD100203A49086010E03948B9
:102DE00001680068401C374A10603748415C2E4833
:102DF000314A1268815430480068401C2E490860EE
:102E00002D480068B842EAD32C4800682F49098849
:102E100008442A4908602A4800682C490988401A51
:102E2000274908601C4850F824000968B1FBF0F2FB
:102E300000FB121080B900201F490860164830F8C6
:102E4000240083B2144850F824001C4A1268111A56
:102E5000154A2046FFF78AFE154880681B490988F5
:102E6000401A134988604FF440510220FFF71FFABF
:102E70001348006818B10F480078042808D10020D2
:102E80000D490860012100F023F800200149087075
:102E9000BDE8F08168000020500000206C00002098
:102EA00070000020600000203C0200207C00002018
:102EB0009C04002004010020640000207400002015
:102EC00078000020800000203C0400200601002043
:102ED00070B505460C46F948F9490860084605737F
:102EE0000D228120FFF758FD0520F64908702CB10E
:102EF0000420087030210120FFF7BDF970BD10B526
:102F0000F0480078022810D003281DD0042802D0F1
:102F1000052823D100E000BF0020EA4908704FF4E3
:102F200040510220FFF7C3F919E0E748C07B282889
:102F300008D1E549487BE5490A68E549096800F098
:102F4000F8FC00BF00BF0AE001210020FFF7C0FF2E
:102F50004FF440510220FFF7AAF900E000BF00BF84
:102F600010BD10B5044624B1012C07D0022C15D198
:102F70000AE010210120FFF77EF910E04FF48051A4
:102F80000220FFF794F90AE010210120FFF773F9FE
:102F90004FF480510220FFF78AF900E000BF00BF24
:102FA00010BD10B5002404E0CA48005DC6490855AC
:102FB000641CC94800888442F6D3C3484068C049AD
:102FC0004860C14880688860C34800881F280FD0C7
:102FD0000220FFF7C6FF0020BB490860487B1A2289
:102FE000052100F0BEFB00210120FFF771FF10BD9D
:102FF000B548C07B282803D0B348C07B2A2816D107
:10300000B148407C0106B048807C41EA0041AE48AE
:10301000C07C41EA0020AC49097D0843AC49086006
:10302000A948C17D807D41EA0020A8490860A648E2
:103030000068AA4988426FD1A348407BA849096823
:10304000884207D8A048807B012803DB9E48807B0C
:1030500010280DDD0220FFF784FF9B49487B2422C6
:10306000052100F07EFB00210120FFF731FFE8E0A1
:103070009548C07B25285FD01BDC15286FD00EDC5F
:1030800008286DD006DC00285BD0032830D0042847
:1030900067D176E00A286ED01228F9D12DE01A38CF
:1030A0000A285ED2DFE800F0392EB17D33B1B1B12C
:1030B000B1438A286FD00EDC552867D006DC28285B
:1030C00044D02A284ED02F28E2D155E05A2829D0C2
:1030D0008828DDD176E0A8286DD004DC8F286FD059
:1030E0009E28D5D173E0AA287BD0AF28D0D182E02A
:1030F0007549487B00F0C8FB95E07349487B00F0B8
:1031000015FB90E07049487B00F0CDFB8BE06E49E9
:10311000487B00F0C8FB86E086E06B49487B00F006
:10312000A5FB80E06849487B00F0A7FB7BE066498F
:10313000487B00F01AFB76E06349487B00F051FBC6
:1031400071E06149487B00F097FC6CE05E49487B88
:103150005E490A685E49096800F0EBFB63E01BE02A
:1031600024E052E05849487B58490A6858490968A0
:1031700000F016FC57E02FE05349487B00F047FC75
:1031800051E05149487B00F091FC4CE04E49487BAE
:1031900000F0A2FC47E029E04B49487B00F09CFC92
:1031A00041E04949487B00F097FC3CE04649487BB8
:1031B00000F092FC37E04449487B00F08DFC32E09F
:1031C0001EE00EE04049487B00F086FC2BE03E49C3
:1031D000487B00F081FC26E03B49487B00F07CFC0A
:1031E00021E03949487B00F077FC1CE03649487BF8
:1031F00000F072FC17E03449487B00F06DFC12E0EF
:103200003149487B00F068FC0DE00220FFF7A9FE81
:103210002D49487B2022052100F0A3FA002101203E
:10322000FFF756FE00BF0CE00220FFF79AFE26498A
:10323000487B2022052100F094FA00210120FFF7AD
:1032400047FE00BFD3E610B51F48C47B21490220CA
:10325000FFF7B9FB204908801A48007810B101280F
:103260001CD102E0FFF79DFE26E02A2C08D116496A
:10327000487B16490A681649096800F091FB1BE073
:103280000120FFF76EFE1049487B2422052100F043
:1032900068FA00210220FFF71BFE0DE00220FFF775
:1032A00060FE0949487B2422052100F05AFA0021DA
:1032B0000220FFF70DFE00BF00BF10BD5553425363
:1032C0009C040020040100207C0400200C0100204C
:1032D000080100203C040020060100205553424311
:1032E0006C01002070B505460C4622462946812017
:1032F000FFF752FB30210120FEF7BDFF03200549F7
:10330000087005488068001B034988600020087326
:1033100070BD0000040100209C04002010B5FFF7E0
:10332000EEFD10BD10B5FFF78EFF10BD10B50F48B4
:1033300000680F4908800846008800F400400D49E5
:103340000988084201D0FEF79BFD0948008800F477
:10335000806008490988084206D04FF6FF300349CB
:10336000086005494868804710BD0000445C004083
:10337000680100203A0000207401002010B5FFF71A
:10338000C8FB00208B490968887200F02BF9FFF711
:10339000F5FA00208849086010BD10B50020874963
:1033A00088728748C0798349096848720020FEF70F
:1033B00035FF4FF400710020FEF748FF2021002068
:1033C000FEF759FF18210020FFF7E4F87D4890F838
:1033D0002C100020FFF72AF958210020FFF7CDF824
:1033E0000020FEF7F3FF0020FEF7BBFF00210120C5
:1033F000FEF72CFF98210120FFF7BFF820210120C4
:10340000FEF739FF00210120FEF751FF00210220C5
:10341000FEF71CFFD8210220FFF7BCF8694890F89E
:103420002C100220FFF702F94FF440510220FEF762
:103430003EFF00210220FEF71EFF624890F82C108C
:103440000020FFF7F3F80020FEF78BFF0020FEF7C7
:103450006EFC0120584908605B485C490860002008
:103460005B49087010BD10B552480068807A58B1A9
:103470000520514908600120FFF751F80220FFF7AD
:1034800038F800205249087010BD10B54F48006848
:103490004D49884202D00220FFF763FD10BD042091
:1034A00045490860704770477047014629B90120B7
:1034B000404A12681082002070474648FCE770B509
:1034C000054600243B480068007800F07F00212872
:1034D00011D1FE2D0FD137480068408858B93548C2
:1034E0000068808838B933480068C088012802D154
:1034F000AFF2490401E0022070BD0CB90220FBE7E5
:103500002C480068846100212A480068418200201C
:10351000A0470020F0E710B5044626480068007870
:1035200000F07F0021281AD1FF2C18D12148006813
:103530004088A0B91F480068808880B91D4800688D
:10354000C08860B90120FEF7EAFF0220FEF7D1FF34
:103550001D481E49086000201D49087010BD02204A
:10356000FCE70246002901DD02207047002A01DD48
:103570000220FAE70020F8E710B504461649204675
:10358000FEF7C4F810BD10B5044614492046FEF7F6
:10359000BDF810BD70B5054606480068C478052C16
:1035A00001DD002070BD0E4800EBC4012846FEF787
:1035B000ADF8F7E7300000200002002020020020D4
:1035C0007E54000874010020555342437C040020BF
:1035D000040100206C010020C8010020D00100205F
:1035E000D801002010B50120FFF756FA01244C48FD
:1035F000046000204B49088008460088484908605C
:103600000020091D08604FF4E05046490880084634
:10361000008843490860002010BD10B501204049D2
:1036200008600020091D0860FFF736FA03203C49B6
:103630000860002010BD10B53948006884B244F01D
:10364000080437480460006884B244F00404344835
:103650000460FFF7E5F910BD10B53148006884B289
:1036600024F004042E480460FFF7DEF94FF4044010
:103670002B49086010BD70B50546072D01D02A48BA
:10368000057029480078082841D2DFE800F0040AD4
:103690001016212E4142FFF7DFFF06202249087055
:1036A0003BE0FFF7D9FF04201F49087035E00220F6
:1036B0001D494870032008702FE01B484078401EC9
:1036C000194948700846407808B90420087024E079
:1036D0001348006884B244F01004114804600520C7
:1036E000114908700A20487017E00F484078401EC2
:1036F0000D4948700846407840B90948006884B2CE
:1037000024F01004064804600620087005E000BF9D
:1037100000BF06200449087000BF00BF70BD000054
:10372000405C00403A0000200502002070B50646CB
:10373000F948007C10F0010F02D0F84C05250BE091
:103740000EB9F74C00E0F74CF348C07C242802DCAB
:10375000F148C57C00E0242529462046FFF7C2FD3C
:1037600070BDF14B99701A73704710B5044620462E
:10377000FFF740FA68B1E849487B3A220221FFF797
:10378000F0FF01210846FFF7A3FB0020FFF7E9FB4C
:1037900010BDE64850F82400000EE5490871E348E2
:1037A00050F82400000C4871E04830F82400000A6A
:1037B0008871DE4810F82400C871DE4850F82400F3
:1037C000000C4872DB4830F82400000A8872D9489F
:1037D00010F82400C8720C21D548FFF783FD00BF04
:1037E000D6E710B504462046FFF704FA68B1CA4987
:1037F000487B3A220221FFF7B4FF01210846FFF778
:1038000067FB0020FFF7ADFB10BDC84850F824004F
:10381000401E000EC8490870C44850F82400401EDD
:10382000000C4870C14830F82400401E000A88701F
:10383000BE4810F82400401EC870BE4850F824004E
:10384000000E0871BB4850F82400000C4871B948BC
:1038500030F82400000A8871B64810F82400C871B6
:103860000821B548FFF73EFD00BFCDE710B504467F
:103870000421B248FFF736FD10BD10B504460821FB
:10388000AF48FFF72FFD10BD70B50546A248C07CBC
:10389000122802DCA048C47C00E012242146A24881
:1038A000FFF720FD70BD10B5044601210020FFF791
:1038B0000FFB10BD2DE9F04104460D4617461E468C
:1038C000B8199A4951F82410884213D92A2D02D1E7
:1038D0000220FFF746FB0020FFF743FB21220521D2
:1038E0002046FFF73EFF00210120FFF7F1FA0020FC
:1038F000BDE8F081884881688E4850F82400704304
:10390000814214D02A2D03D10220FFF72AFB02E0C6
:103910000020FFF726FB8049487B24220521FFF782
:1039200020FF00210120FFF7D3FA0020E0E701206B
:10393000DEE770B506460C4615468248007820BB87
:103940007549487B2B4622462821FFF7B3FF00B973
:1039500070BD7148007B10F0800F08D002207949BB
:1039600008702A4621463046FFF7A6F90CE00220EF
:10397000FFF7F7FA6849487B24220521FFF7F1FE9B
:1039800001210846FFF7A4FAE2E76E480078022812
:1039900004D12A4621463046FFF78EF900BFD7E70B
:1039A00070B506460C4615466648007820BB5A4955
:1039B000487B2B4622462A21FFF77CFF00B970BDC9
:1039C0005548007B10F0800F08D101205D49087038
:1039D0004FF440510220FEF76AFC0CE00020FFF794
:1039E000C0FA4D49487B24220521FFF7BAFE002189
:1039F0000120FFF76DFAE2E752480078012804D170
:103A00002A4621463046FFF7C7F900BFD7E710B571
:103A100004464148806848B93F48007C10F0040FD4
:103A200004D101210020FFF753FA0CE00220FFF738
:103A300098FA3949487B24220521FFF792FE00219C
:103A40000120FFF745FA10BD10B5044632488068E2
:103A500068B10220FFF785FA2F49487B2022052113
:103A6000FFF77FFE00210120FFF732FA03E001217A
:103A70000020FFF72DFA10BD10B504462046FFF7D1
:103A8000B9F868B12449487B3A220221FFF769FE60
:103A900001210846FFF71CFA0020FFF762FA10BD6B
:103AA00001210020FFF714FA00BFF8E710B5044623
:103AB0002046FFF79FF868B11749487B3A22022158
:103AC000FFF74FFE01210846FFF702FA0020FFF73B
:103AD00048FA10BD00BFFCE710B504460E488068E8
:103AE00018B90020FFF73DFA0BE00B48007B10F0FF
:103AF000800F03D00020FFF734FA02E00220FFF726
:103B000030FA0549487B20220521FFF72AFE0021D3
:103B10000120FFF7DDF910BD7C04002084000020A7
:103B200089000020AD000020DD00002058000020AA
:103B3000F700002050000020EF000020D1000020FE
:103B4000D50000200401002001B502E00098401ECD
:103B5000009000980028F9D108BD00F053F801F05A
:103B6000F7FBFEF750FFFEF752FFFEF768FFFEF788
:103B700069F900BF084800680528FBD107A001F0DB
:103B80004DFC08E01048006880F001000E49086014
:103B90000E48FFF7D9FFF5E7000200200D0A20D2FA
:103BA000B0BBF02049534F2053544D33322055536E
:103BB00042204D4153532053544F5241474520CA50
:103BC000B5D1E90D0A0000000C0C0140FFFF0F0009
:103BD000704700BFFEE700BFFEE700BFFEE700BF83
:103BE000FEE7704770477047704710B501F073FBF0
:103BF00010BD10B5FFF79AFB10BD10B5FEF766FAC1
:103C000010BD000000B585B0012144F20400FDF7AD
:103C100045F84FF40070ADF8100018208DF813002F
:103C200003208DF8120004A92348FCF781FD4FF40E
:103C30008060ADF8100004208DF8130004A91E4820
:103C4000FCF776FD4FF4E13000900020ADF8040061
:103C5000ADF80600ADF80800ADF80C000C20ADF88A
:103C60000A0069461548FDF7B0F901211348FDF730
:103C700038FA40211148FDF71CFB05B000BD70B5B6
:103C800004460D46E1B20D48FDF798FA00BF402109
:103C90000A48FDF701FB0028F9D0204670BD10B599
:103CA000044600BF20210548FDF7F6FA0028F9D0A8
:103CB0000248FDF787FA10BD0008014000380140B6
:103CC00008B50020FDF77DF80020FDF77DF8FDF731
:103CD0004DF800214FF48060FCF7D3FF4FF4F8500B
:103CE000ADF8000004208DF803006946FB48FCF79E
:103CF0001FFD0420ADF800006946F948FCF718FDE7
:103D000008BD08B54FF4C060FCF71CFB31208DF8EE
:103D1000000000208DF801008DF8020001208DF8D0
:103D200003006846FCF713FB08BD10B5ED48FCF72F
:103D30005FFC10BD30B58BB005460C46EA48FCF779
:103D40006AFC0021E948FCF738FCE948009001953D
:103D500000200290A008039000200490802005908D
:103D60008000069080000790002008904FF40050DB
:103D7000099000200A906946DC48FCF7F3FB01211A
:103D8000DA48FCF71AFC0BB030BD30B58BB00546F5
:103D90000C46D548FCF73FFC0021D448FCF70DFC4D
:103DA000D3480090019510200290A00803900020B5
:103DB00004908020059080000690800007900020ED
:103DC00008904FF40050099000200A906946C748B7
:103DD000FCF7C8FB0121C548FCF7EFFB0BB030BD79
:103DE00008B501213020FCF759FF4FF4F850ADF829
:103DF000000003208DF8020018208DF803006946AA
:103E0000B648FCF795FC0420ADF800006946B448BC
:103E1000FCF78EFC01218802FCF733FF0121022010
:103E2000FCF72FFF08BD014600BFB1488038406B4A
:103E300010F0450FF9D040F2FF50AD4A803A906340
:103E40001046406908221040C0B270472DE9FC417D
:103E500007460D460026002400200090019008200F
:103E6000A449086010204860402088600020C86095
:103E70004FF4806008610846FCF7C6FF1020FFF78A
:103E8000D2FF044614B12046BDE8FC819A48008860
:103E9000000498490860372048604020886000206E
:103EA000C8604FF4806008610846FCF7ADFF37201A
:103EB000FFF7B9FF04460CB12046E5E74FF0FF30AD
:103EC0008E49086008204860302088600220C86061
:103ED00000200861012048610846FCF7BEFF002071
:103EE0008449086033204860402088600020C86012
:103EF0004FF4806008610846FCF786FF3320FFF727
:103F000092FF04460CB12046BEE70CE04FF40010CF
:103F1000FCF7ECFF38B1FCF7C2FF4DF82600761C29
:103F2000012E00D906E072488038406B40F22A61C9
:103F30000842EBD000BF0820FCF7D8FF28B10820CA
:103F4000FCF7DEFF042420469EE70220FCF7CEFFAC
:103F500028B10220FCF7D4FF0224204694E7202059
:103F6000FCF7C4FF28B12020FCF7CAFF0624204636
:103F70008AE74FF40070FCF7B9FF30B14FF40070DE
:103F8000FCF7BEFF072420467EE740F2FF50FCF717
:103F9000B7FF00980006009901F47F4140EA012034
:103FA000009901F47F0140EA1120009940EA116074
:103FB000686001980006019901F47F4140EA012000
:103FC000019901F47F0140EA1120019940EA116052
:103FD0002860204658E77CB5054600240020009064
:103FE0000190FCF72FFF10F0007F02D00E24204636
:103FF0007CBD4149098888B26946FFF727FF04461E
:104000000CB12046F4E7012D35D1019810F4802F32
:104010002ED03948008800043649086037204860AF
:10402000402088600020C860A80208610846FCF7AC
:10403000EBFE3720FFF7F7FE04460CB12046D7E72A
:1040400002202C490860062048604020886000203B
:10405000C8604FF4806008610846FCF7D5FE062072
:10406000FFF7E1FE04460CB12046C1E72046BFE75A
:1040700025242046BCE7019810F4803F42D01E481A
:10408000008800041B490860372048604020886091
:104090000020C8604FF4806008610846FCF7B4FE59
:1040A0003720FFF7C0FE04460CB12046A0E70020F1
:1040B0001049086006204860402088600020C860E1
:1040C0004FF4806008610846FCF79EFE0620FFF76B
:1040D000AAFE0446A4B120468AE700000010014071
:1040E000001401400020001000F0001044040240C1
:1040F00080800140440500200C020020580500206B
:10410000204675E72524204672E770B50446002551
:10411000F7480068032802D12725284670BDF448D7
:10412000006838B1F2480068012803D0F048006800
:1041300002282ED1B4F5805F02D127252846EDE76D
:10414000B4F5006F14D10120FFF745FF054605BB0C
:104150000120E849087500200860486088604FF435
:104160000060C860002008610846FCF70DFE10E002
:104170000020FFF730FF05465DB90120DD490875D5
:104180000020086048608860C86008610846FCF745
:10419000FBFD2846C2E770B504460025D6480460FA
:1041A0000720D5494860402088600020C8604FF44F
:1041B000806008610846FCF727FE0720FFF733FE02
:1041C0000546284670BD30B5014600200022C84B88
:1041D0001B7881F84E30C94B1B88A1F84C30C84B76
:1041E0001B681A0E93090B70C2F383034B7002F025
:1041F00003038B70C24B1B68C3F30742CA70C04BEA
:104200001B88C3F307220A71BD4B1A784A715B6899
:104210001A0E1301CB80BA4B5B68C3F30742CB88FD
:1042200043EA1213CB8002F00F030B72B44B9B884E
:10423000C3F30722D3094B72C2F380138B72C2F30C
:104240004013CB72C2F300130B7300234B73A84BC4
:104250001B681BB1A64B1B68012B3CD193071B0DA0
:104260000B61A74B1A790B6943EA82030B61A44BDC
:104270009B681A0E0B6943EA92130B61C2F3C203E7
:104280000B7502F007034B759D4B9B68C3F3074208
:1042900053098B75C2F38203CB7593075B0F0B76C3
:1042A000974B1B89C3F307220B7E43EAD2130B768D
:1042B0000B695B1C4B640C7E4B6CA41C0125A54058
:1042C0006B434B640C7A0123A3408B64D1E9113416
:1042D00063434B6421E0864B1B68022B1DD1884B46
:1042E0001A7993069B0A0B61854B9B681A0E0B6922
:1042F00043EA02230B61824B9B68C3F307420B69BD
:1043000013430B617E4B1B89C3F307220B695B1CB4
:10431000DB044B644FF400738B64C2F3801301F829
:10432000193F93065B0E4B70754B1A7A4B7843EA34
:10433000D2134B7002F07F038B70714BDB681A0E47
:10434000D309CB70C2F341130B71C2F382034B71DB
:1043500093071B0F8B716A4BDB68C3F307428B79A2
:1043600043EA92138B71C2F34013CB7100230B729B
:1043700002F001034B72624B9B89C3F30722D309FE
:104380008B72C2F38013CB72C2F340130B73C2F370
:1043900000134B73C2F381038B7302F00303CB73DF
:1043A000574B1A7B53080B7401234B74554B1B68F6
:1043B0001A0ECA74A1F11901524B1B68C3F30742CC
:1043C0004FEA0224CC854F4B1B88C3F30722CB8DC9
:1043D00043EA0203CB854B4B1A784FEA02640C6325
:1043E0005B684FEA13620B6B43EA02440C63454B74
:1043F0005B68C3F307420B6B43EA02240C63414B37
:104400009B88C3F307220B6B43EA02030B633D4B0C
:104410001A794FF034035A543A4B9B684FEA1362AF
:104420004FF035035A54374B9B68C3F307424FEAAA
:1044300002648C63334B1B89C3F307228B6B43EA03
:1044400002448C632F4B1A7A8B6B43EA02248C63F1
:104450002C4BDB684FEA13628B6B43EA02038B63DE
:10446000284BDB68C3F307424FF03C035B5C43EA35
:1044700012144FF03C035C544FEA02734FEA13549A
:10448000CC87204B9B89C3F30722CB8F43EA0203DF
:10449000CB871C4B1A7B4FEA52044FF040035C540D
:1044A0004FF001044FF041035C5430BD70B500255E
:1044B0001548446B01E01448446B14F0450FFAD0E2
:1044C00014F0040F05D003250420FCF719FD28463D
:1044D00070BD14F0010F05D001250120FCF710FD7F
:1044E0002846F5E740F2FF50FCF70AFD2846EFE7C3
:1044F000080200202C050020440500200C020020AA
:10450000AC040020BC040020008001402DE9F041F3
:1045100006460F464FF00008F848456B01E0F748A3
:10452000456B15F0450FFAD015F0040F07D04FF08A
:1045300003080420FCF7E4FC4046BDE8F08115F0D8
:10454000010F06D04FF001080120FCF7D9FC4046CE
:10455000F3E7FCF773FCB04203D04FF0100840467D
:10456000EBE740F2FF50FCF7CBFC0020FCF76AFCC5
:10457000044614F4604F03D1200C38804046DCE739
:1045800014F4005F01D01320D7E714F4804F01D05A
:104590001020D2E714F4004F01D00F20CDE74046A1
:1045A000CBE738B5002401200090FCF718FC10B9C7
:1045B0002524204638BDD2480068042828D0002091
:1045C000D049086002204860C02088600020C86090
:1045D0004FF4806008610846FCF716FCFFF766FFA1
:1045E00004460CB12046E5E70020FCF72BFCC64949
:1045F00008600420FCF726FCC34948600820FCF74B
:1046000021FCC14988600C20FCF71CFCBE49C86035
:10461000BB48006858B1BA480068012807D0B848BC
:104620000068062803D0B6480068022816D100208A
:10463000B449086003204860402088600020C860BA
:104640004FF4806008610846FCF7DEFB69460320F2
:10465000FFF75CFF04460CB12046ABE7A8480068B2
:1046600004282ED0BDF80000A8490860BDF800005D
:104670000004A449086009204860C0208860002028
:10468000C8604FF4806008610846FCF7BDFBFFF787
:104690000DFF04460CB120468CE70020FCF7D2FB4E
:1046A0009B4908600420FCF7CDFB9949486008202D
:1046B000FCF7C8FB964988600C20FCF7C3FB9449C3
:1046C000C8600024204675E770B500258B48446B10
:1046D00001E08A48446B14F0450FFAD014F0040F3F
:1046E00005D003250420FCF70BFC284670BD40F2E2
:1046F000FF50FCF705FC2846F8E770B500264FF49C
:1047000080357E48446B02E06D1E7C48446B14F09B
:10471000450F01D1002DF7D115B114F0040F05D0CC
:1047200003260420FCF7ECFB304670BD14F0400F6C
:1047300005D000264020FCF7E3FB3046F5E7304685
:10474000F3E770B500254FF4803400E0641E24B117
:104750008020FCF7CBFB0028F8D014B903252846AD
:1047600070BD40F2FF50FCF7CBFB2846F8E72DE97F
:10477000F0410024002600250027A046B22065490C
:1047800008750020086048608860C86008610846B5
:10479000FCF7FAFA0320FCF717FB0120FCF711FBEA
:1047A00000205849086048608860C8604FF4806005
:1047B00008610846FCF728FBFFF7C3FF044614B165
:1047C0002046BDE8F0814FF4D5704E4908600820BE
:1047D0004860402088600020C8604FF48060086115
:1047E0000846FCF711FBFFF788FF04462CB90120AF
:1047F000434908604FF0804812E0002041490860BA
:1048000037204860402088600020C8604FF48060F6
:1048100008610846FCF7F8FA3720FFF704FB044666
:104820000020384908603720486040208860002018
:10483000C8604FF4806008610846FCF7E5FA37204D
:10484000FFF7F1FA0446002C4AD136E000202D494A
:10485000086037204860402088600020C8604FF41E
:10486000806008610846FCF7CFFA3720FFF7DBFAD3
:1048700004460CB12046A4E7274848EA0000214935
:10488000086029204860402088600020C8604FF4FC
:10489000806008610846FCF7B7FAFFF715FF044689
:1048A0000CB120468DE70020FCF7CCFA064601202B
:1048B00080EAD67080F001076D1C1FB94FF6FF70BB
:1048C0008542C3D34FF6FF70854202D31B24204696
:1048D00077E706F08040060002D002200849086011
:1048E00020466EE710B50024FFF77AFAFCF73EFA8F
:1048F000FFF73DFF04468CB1204610BD008001400B
:104900000802002044050020BC0400200C02002006
:10491000AC0400202C05002000001080FFF741FEB1
:1049200004460CB12046E8E70120FE490875002046
:10493000086048608860C86008610846FCF724FA8F
:104940001CB9F948FFF73FFC044634B9F649B1F801
:104950004C100804FFF71FFC044624B94FF4006014
:10496000FFF7D3FB04462046C7E770B50446002591
:10497000EE4800880004EE49886040F24D40C8606F
:104980000D20FFF750FA05460DB1284670BDE848E6
:10499000406920602846F9E708B500200090684685
:1049A000FFF7E3FF08B1FF2008BD0098C0F34320E4
:1049B000FAE710B50424FFF7EFFF0446042C01D1F9
:1049C000002010BDFF2C01D10220FAE70120F8E7FA
:1049D00010B500240020FCF7F7F9204610BD70B593
:1049E0000446002500260020FCF72CFA10F0007F7A
:1049F00002D00E25284670BD4020CE490860102008
:104A00004860402088600020C8604FF480600861E2
:104A10000846FCF7F9F91020FFF705FA05460DB135
:104A20002846E8E7C14800880004C24908603720EA
:104A30004860402088600020C8604FF480600861B2
:104A40000846FCF7E1F93720FFF7EDF905460DB10F
:104A50002846D0E74FF0FF30B74908604020486053
:104A6000602088600220C860002008610120486141
:104A70000846FCF7F2F90020AE4908600D204860B6
:104A8000402088600020C8604FF4806008610846BC
:104A9000FCF7BAF90D20FFF7C6F905460DB1284617
:104AA000A9E70EE04FF40040FCF720FA48B10026D9
:104AB00004E0FCF7F4F944F82600761C082EF8D33D
:104AC00020349B48406B40F22A610842EAD008201B
:104AD000FCF70CFA28B10820FCF712FA0425284646
:104AE00089E70220FCF702FA28B10220FCF708FA55
:104AF000022528467FE72020FCF7F8F928B120207E
:104B0000FCF7FEF90625284675E74FF40070FCF720
:104B1000EDF930B14FF40070FCF7F2F907252846A3
:104B200069E703E0FCF7BBF92060241D4FF4001097
:104B3000FCF7DCF90028F5D140F2FF50FCF7E0F972
:104B4000284658E770B50446002600257B48FFF745
:104B500046FF06460EB1304670BD7848007885099C
:104B6000257076480078C0F34015657073488578E5
:104B7000280260807148C5786088284360806F484B
:104B80000579280660606D484579606840EA05400F
:104B900060606A488579606840EA0520606067481F
:104BA000C5796068284360606448057A2572457A53
:104BB0006572807A0509A5726048C57A2802A081CD
:104BC0005E48057BA0892843A0815C48407B85081E
:104BD000A5735A48407B00F00305E5733046BBE7F8
:104BE0002DE9F04107460D461446002600205449A1
:104BF000087054490860544908604D49C8625348D8
:104C00000068022801D104026D0A4A48046010209D
:104C100048494860402088600020C8604FF48060A8
:104C200008610846FCF7F0F81020FFF7FCF806468C
:104C300016B13046BDE8F0814FF0FF303E490860C4
:104C400008464460902088600220C8600020086107
:104C5000012048610846FCF700F93648056011203C
:104C600034494860402088600020C8604FF480606C
:104C700008610846FCF7C8F81120FFF7D4F806468B
:104C80000EB13046D6E701210802FCF7ADF801204D
:104C9000FCF7B7F821463846FFF74CF83046C9E72D
:104CA0002DE9F04180460D4614461E46002700209F
:104CB0002349087023490860012023490860002027
:104CC0001B49C86221480068022801D104026D0A0C
:104CD0001848046010201749486040208860002070
:104CE000C8604FF4806008610846FCF78DF810201A
:104CF000FFF799F8074617B13846BDE8F0814FF045
:104D0000FF300D49086006FB04F048609020886081
:104D10000220C86000200861012048610846FCF7B5
:104D20009CF815E02C050020DC0400200C0200207B
:104D3000008001404405002058050020CC040020DC
:104D40001402002018020020100200200802002097
:104D5000F94805601220F84948604020886000202A
:104D6000C8604FF4806008610846FCF74DF81220D7
:104D7000FFF759F807460FB13846BEE70121080290
:104D8000FCF732F80120FCF73CF806FB04F1404642
:104D9000FEF7D0FF3846B0E710B5002400BFFEF79D
:104DA000C4FF30B9E548006818B9E5480078002824
:104DB000F5D0E348007810B1E148007810BD2046F6
:104DC000FCE72DE9F04107460D4614460026002079
:104DD000DB490870D9490860DA490860DA49C862D5
:104DE000DA480068022801D104026D0AD248046042
:104DF0001020D1494860402088600020C8604FF4EE
:104E0000806008610846FBF7FFFF1020FFF70BF8F2
:104E1000064616B13046BDE8F081C7480560182047
:104E2000C5494860402088600020C8604FF4806019
:104E300008610846FBF7E8FF1820FEF7F4FF064676
:104E40000EB13046E7E74FF0FF30C1490860084631
:104E50004460902088600020C8600861012048619B
:104E60000846FBF7FAFF01210802FBF7BDFF2146C8
:104E70003846FEF78AFF0120FBF7C3FF3046CAE73A
:104E80002DE9F84380460F4615461E4600240020B3
:104E90000090AB490870A94908600120A949086041
:104EA0000020A949C862A9480068022801D105026A
:104EB0007F0AA148056010209F4948604020886013
:104EC0000020C8604FF4806008610846FBF79CFF33
:104ED0001020FEF7A8FF044614B12046BDE8F88371
:104EE0009C480088000494490860372048604020AE
:104EF00088600020C8604FF4806008610846FBF7B6
:104F000083FF3720FEF78FFF04460CB12046E5E70C
:104F10008948066017208849486040208860002042
:104F2000C8604FF4806008610846FBF76DFF1720EA
:104F3000FEF779FF04460CB12046CFE77E480760B4
:104F400019207D494860402088600020C8604FF4E7
:104F5000806008610846FBF757FF1920FEF763FFE2
:104F600004460CB12046B9E74FF0FF30784908609D
:104F700006FB05F04860902088600020C86008614A
:104F8000012048610846FBF768FF01210802FBF792
:104F90002BFF0120FBF735FF06FB05F14046FEF72E
:104FA000F4FE20469AE710B5002400BFFEF7BDFED0
:104FB00030B96248006818B9614800780028F5D017
:104FC0005F48007810B15E48007810BD40F2FF5095
:104FD000FBF796FF2046F8E75B48406B10F4405F14
:104FE00001D0012070470020FCE710B5002400200C
:104FF0005549886040F24C40C8600C20FEF713FF12
:105000000446204610BD7CB50446002500200190D2
:105010000090504800880004474908600D2048600F
:10502000402088600020C8604FF480600861084616
:10503000FBF7EAFE4448406B009002E04248406BB8
:105040000090009810F0450FF8D0009810F0040F71
:1050500005D003250420FBF753FF28467CBD0098AC
:1050600010F0010F05D001250120FBF749FF28466C
:10507000F4E7FBF7E3FE009000980D2802D010251E
:105080002846EBE740F2FF50FBF73AFF0020FBF722
:10509000D9FE01900198C0F3432020702E49019859
:1050A000084201D12846D9E7019810F0004F01D0FD
:1050B0001C20D3E7019810F0804F01D00920CDE7E4
:1050C000019810F0005F01D00A20C7E7019810F0A6
:1050D000805F01D00B20C1E7019810F0006F01D074
:1050E0000C20BBE7019810F0806F01D00D20B5E7D0
:1050F000019810F0807F01D00E20AFE7019810F4E6
:10510000000F01D00F20A9E7019810F4800F01D003
:105110001020A3E7019810F4001F01D011209DE793
:10512000019810F4801F01D0122097E7019810F425
:10513000002F13D0132091E744050020180200200F
:10514000140200201002002000800140080200200C
:10515000580500200C02002008E0FFFD019810F423
:10516000802F01D0142079E7019810F4003F01D07E
:10517000152073E7019810F4803F01D016206DE7E9
:10518000019810F4004F01D0172067E7019810F440
:10519000804F01D0182061E7019810F4005F01D022
:1051A00019205BE7019810F0080F01D01A2055E78D
:1051B000284653E72DE9FC4105460E46002400270A
:1051C0000020019000905A484068202111EA105FA9
:1051D00003D125242046BDE8FC8156484068C0B272
:1051E000801C5549B1FBF0F001900020FBF72AFE2E
:1051F00010F0007F02D00E242046ECE74F480068F4
:10520000022801D16D0A760A4C48006838B14B4833
:105210000068012803D04948006802282BD148487B
:105220000560202046494860402088600020C86012
:105230004FF4806008610846FBF7E6FD2020FEF78A
:10524000F2FD04460CB12046C5E73D48066021202A
:105250003B494860402088600020C8604FF480606F
:1052600008610846FBF7D0FD2120FEF7DCFD04466F
:105270000CB12046AFE70020314908602620486085
:10528000402088600020C8604FF4806008610846B4
:10529000FBF7BAFD2620FEF7C6FD04460CB12046FA
:1052A00099E7002700E07F1C01988742FBD36846FE
:1052B000FFF7A9FE044603E06846FFF7A4FE044694
:1052C0003CB99DF800000728F6D09DF8000006289C
:1052D000F2D020467FE710B51A48006801280BD1AC
:1052E00000201449886040F24C40C8600C20FEF752
:1052F0009AFD1549087002E00020134908704FF428
:105300008070FBF70AFE00214FF48070FBF76CFD04
:1053100001200E4908600C48007810BD01460020AD
:1053200002E04910421CD0B20129FAD170470000B6
:10533000AC04002000800140C0D40100080200201D
:105340004405002010020020140200201802002052
:1053500008B501211820FBF7A1FC0120ADF80000E1
:1053600010208DF8030003208DF8020069460948DB
:10537000FBF7DEF91820ADF8000069460648FBF798
:10538000D7F901210348FBF77EFA18210248FBF701
:105390007AFA08BD000C014000100140064C074D90
:1053A00006E0E06840F0010394E8070098471034F5
:1053B000AC42F6D3FAF7C0FE0055000820550008AD
:1053C00070B501EB020410F8015B15F0070301D181
:1053D00010F8013B2A1106D110F8012B03E010F858
:1053E000016B01F8016B5B1EF9D12B0705D400237B
:1053F000521E0FD401F8013BFAE710F8013B02F10D
:105400000202A1EB030303E013F8015B01F8015B67
:10541000521EF9D5A142D6D3002070BD014A0249DF
:1054200000F013B87F3C00081C02002002E008C80E
:10543000121F08C1002AFAD170477047002001E00E
:1054400001C1121F002AFBD170472DE9F041164619
:105450000F460446002503E03946B0476D1C641C26
:1054600020780028F8D12846BDE8F081120100021A
:1054700000000040830420570002010203010902DA
:105480002000010100C03209040000020806500497
:1054900007058102400000070502024000000403E6
:1054A00009042603530054004D0069006300720094
:1054B0006F0065006C0065006300740072006F008F
:1054C0006E006900630073002603530054004D0012
:1054D0003300320020004D00610073007300200093
:1054E000530074006F0072006100670065001003D4
:1054F0005300540020004D00610073007300000051
:10550000205500080000002020020000C0530008C1
:10551000E855000820020020500700003C54000815
:105520001184A24A04680901020304060708090C51
:10553000691005620204060835800202202D5354CA
:105540004D2001180E534420466C61736820446955
:10555000736B10ED312E302024BC4E414E26292491
:1055600042036206627002150A39D3021002141A4D
:1055700003531254124D12331232123102113013EE
:105580001D330C1808191E040A1525208123030158
:105590001A7D241A9B0413A7341B08A9041ABF04FC
:1055A0001317351B0863041A79041A87041A950423
:1055B00041324029401A6724A9509A8B101A9F0C37
:1055C000136C543308121A7E0832201A9E083204D3
:1055D0001AA20832265AC80813100133201A1AEEEC
:0855E00010721019930119006B
:0400000508000131BD
:00000001FF
